{
  "_format": "hh-sol-artifact-1",
  "contractName": "NFTMarketplace",
  "sourceName": "contracts/NFTMarketplace.sol",
  "abi": [
    {
      "anonymous": false,
      "inputs": [
        {
          "indexed": true,
          "internalType": "address",
          "name": "buyer",
          "type": "address"
        },
        {
          "indexed": true,
          "internalType": "address",
          "name": "seller",
          "type": "address"
        },
        {
          "indexed": true,
          "internalType": "address",
          "name": "nftAddress",
          "type": "address"
        },
        {
          "indexed": false,
          "internalType": "uint256",
          "name": "tokenId",
          "type": "uint256"
        },
        {
          "indexed": false,
          "internalType": "uint256",
          "name": "price",
          "type": "uint256"
        }
      ],
      "name": "ItemBought",
      "type": "event"
    },
    {
      "anonymous": false,
      "inputs": [
        {
          "indexed": true,
          "internalType": "address",
          "name": "seller",
          "type": "address"
        },
        {
          "indexed": true,
          "internalType": "address",
          "name": "nftAddress",
          "type": "address"
        },
        {
          "indexed": false,
          "internalType": "uint256",
          "name": "tokenId",
          "type": "uint256"
        }
      ],
      "name": "ItemCanceled",
      "type": "event"
    },
    {
      "anonymous": false,
      "inputs": [
        {
          "indexed": true,
          "internalType": "address",
          "name": "seller",
          "type": "address"
        },
        {
          "indexed": true,
          "internalType": "address",
          "name": "nftAddress",
          "type": "address"
        },
        {
          "indexed": false,
          "internalType": "uint256",
          "name": "tokenId",
          "type": "uint256"
        },
        {
          "indexed": false,
          "internalType": "uint256",
          "name": "price",
          "type": "uint256"
        }
      ],
      "name": "ItemListed",
      "type": "event"
    },
    {
      "anonymous": false,
      "inputs": [
        {
          "indexed": true,
          "internalType": "address",
          "name": "previousOwner",
          "type": "address"
        },
        {
          "indexed": true,
          "internalType": "address",
          "name": "newOwner",
          "type": "address"
        }
      ],
      "name": "OwnershipTransferred",
      "type": "event"
    },
    {
      "inputs": [
        {
          "internalType": "address",
          "name": "nftAddress",
          "type": "address"
        },
        {
          "internalType": "uint256",
          "name": "tokenId",
          "type": "uint256"
        }
      ],
      "name": "buyItem",
      "outputs": [],
      "stateMutability": "payable",
      "type": "function"
    },
    {
      "inputs": [
        {
          "internalType": "address",
          "name": "nftAddress",
          "type": "address"
        },
        {
          "internalType": "uint256",
          "name": "tokenId",
          "type": "uint256"
        }
      ],
      "name": "cancelListing",
      "outputs": [],
      "stateMutability": "nonpayable",
      "type": "function"
    },
    {
      "inputs": [
        {
          "internalType": "address",
          "name": "nftAddress",
          "type": "address"
        },
        {
          "internalType": "uint256",
          "name": "tokenId",
          "type": "uint256"
        }
      ],
      "name": "getListing",
      "outputs": [
        {
          "components": [
            {
              "internalType": "uint256",
              "name": "price",
              "type": "uint256"
            },
            {
              "internalType": "address",
              "name": "seller",
              "type": "address"
            }
          ],
          "internalType": "struct NFTMarketplace.Listing",
          "name": "",
          "type": "tuple"
        }
      ],
      "stateMutability": "view",
      "type": "function"
    },
    {
      "inputs": [
        {
          "internalType": "address",
          "name": "seller",
          "type": "address"
        }
      ],
      "name": "getProceeds",
      "outputs": [
        {
          "internalType": "uint256",
          "name": "",
          "type": "uint256"
        }
      ],
      "stateMutability": "view",
      "type": "function"
    },
    {
      "inputs": [
        {
          "internalType": "address",
          "name": "nftAddress",
          "type": "address"
        },
        {
          "internalType": "uint256",
          "name": "tokenId",
          "type": "uint256"
        },
        {
          "internalType": "uint256",
          "name": "price",
          "type": "uint256"
        }
      ],
      "name": "listItem",
      "outputs": [],
      "stateMutability": "nonpayable",
      "type": "function"
    },
    {
      "inputs": [],
      "name": "owner",
      "outputs": [
        {
          "internalType": "address",
          "name": "",
          "type": "address"
        }
      ],
      "stateMutability": "view",
      "type": "function"
    },
    {
      "inputs": [],
      "name": "renounceOwnership",
      "outputs": [],
      "stateMutability": "nonpayable",
      "type": "function"
    },
    {
      "inputs": [
        {
          "internalType": "address",
          "name": "newOwner",
          "type": "address"
        }
      ],
      "name": "transferOwnership",
      "outputs": [],
      "stateMutability": "nonpayable",
      "type": "function"
    },
    {
      "inputs": [],
      "name": "withdrawFunds",
      "outputs": [],
      "stateMutability": "nonpayable",
      "type": "function"
    },
    {
      "inputs": [],
      "name": "withdrawProceeds",
      "outputs": [],
      "stateMutability": "nonpayable",
      "type": "function"
    }
  ],
  "bytecode": "0x608060405234801561001057600080fd5b50600160008190555061003561002a61003a60201b60201c565b61004260201b60201c565b610108565b600033905090565b6000600160009054906101000a900473ffffffffffffffffffffffffffffffffffffffff16905081600160006101000a81548173ffffffffffffffffffffffffffffffffffffffff021916908373ffffffffffffffffffffffffffffffffffffffff1602179055508173ffffffffffffffffffffffffffffffffffffffff168173ffffffffffffffffffffffffffffffffffffffff167f8be0079c531659141344cd1fd0a4f28419497f9722a3daafe3b4186f6b6457e060405160405180910390a35050565b611c33806101176000396000f3fe6080604052600436106100915760003560e01c80638da5cb5b116100595780638da5cb5b146101675780639038e693146101925780639f37092a146101a9578063b2ddee06146101c5578063f2fde38b146101ee57610091565b806324600fc31461009657806330cfeda9146100ad578063715018a6146100ea57806388700d1c1461010157806389bfd38f1461013e575b600080fd5b3480156100a257600080fd5b506100ab610217565b005b3480156100b957600080fd5b506100d460048036038101906100cf9190611425565b6102e4565b6040516100e191906118cb565b60405180910390f35b3480156100f657600080fd5b506100ff61032d565b005b34801561010d57600080fd5b506101286004803603810190610123919061147f565b610341565b60405161013591906118b0565b60405180910390f35b34801561014a57600080fd5b50610165600480360381019061016091906114bf565b61040c565b005b34801561017357600080fd5b5061017c610813565b60405161018991906116fe565b60405180910390f35b34801561019e57600080fd5b506101a761083d565b005b6101c360048036038101906101be919061147f565b610986565b005b3480156101d157600080fd5b506101ec60048036038101906101e7919061147f565b610dcb565b005b3480156101fa57600080fd5b5061021560048036038101906102109190611425565b61118c565b005b61021f611210565b600047905060008111610267576040517f08c379a000000000000000000000000000000000000000000000000000000000815260040161025e90611810565b60405180910390fd5b60003373ffffffffffffffffffffffffffffffffffffffff166108fc839081150290604051600060405180830381858888f193505050509050806102e0576040517f08c379a00000000000000000000000000000000000000000000000000000000081526004016102d790611790565b60405180910390fd5b5050565b6000600360008373ffffffffffffffffffffffffffffffffffffffff1673ffffffffffffffffffffffffffffffffffffffff168152602001908152602001600020549050919050565b610335611210565b61033f600061128e565b565b6103496113b6565b600260008473ffffffffffffffffffffffffffffffffffffffff1673ffffffffffffffffffffffffffffffffffffffff1681526020019081526020016000206000838152602001908152602001600020604051806040016040529081600082015481526020016001820160009054906101000a900473ffffffffffffffffffffffffffffffffffffffff1673ffffffffffffffffffffffffffffffffffffffff1673ffffffffffffffffffffffffffffffffffffffff1681525050905092915050565b82826000600260008473ffffffffffffffffffffffffffffffffffffffff1673ffffffffffffffffffffffffffffffffffffffff1681526020019081526020016000206000838152602001908152602001600020604051806040016040529081600082015481526020016001820160009054906101000a900473ffffffffffffffffffffffffffffffffffffffff1673ffffffffffffffffffffffffffffffffffffffff1673ffffffffffffffffffffffffffffffffffffffff16815250509050600081600001511115610515576040517f08c379a000000000000000000000000000000000000000000000000000000000815260040161050c906117f0565b60405180910390fd5b858533600083905060008173ffffffffffffffffffffffffffffffffffffffff16636352211e856040518263ffffffff1660e01b815260040161055891906118cb565b60206040518083038186803b15801561057057600080fd5b505afa158015610584573d6000803e3d6000fd5b505050506040513d601f19601f820116820180604052508101906105a89190611452565b90508073ffffffffffffffffffffffffffffffffffffffff168373ffffffffffffffffffffffffffffffffffffffff1614610618576040517f08c379a000000000000000000000000000000000000000000000000000000000815260040161060f90611870565b60405180910390fd5b6000891161065b576040517f08c379a0000000000000000000000000000000000000000000000000000000008152600401610652906117b0565b60405180910390fd5b60008b90508073ffffffffffffffffffffffffffffffffffffffff166323b872dd33308e6040518463ffffffff1660e01b815260040161069d93929190611719565b600060405180830381600087803b1580156106b757600080fd5b505af11580156106cb573d6000803e3d6000fd5b5050505060405180604001604052808b81526020013373ffffffffffffffffffffffffffffffffffffffff16815250600260008e73ffffffffffffffffffffffffffffffffffffffff1673ffffffffffffffffffffffffffffffffffffffff16815260200190815260200160002060008d81526020019081526020016000206000820151816000015560208201518160010160006101000a81548173ffffffffffffffffffffffffffffffffffffffff021916908373ffffffffffffffffffffffffffffffffffffffff1602179055509050508b73ffffffffffffffffffffffffffffffffffffffff163373ffffffffffffffffffffffffffffffffffffffff167fd547e933094f12a9159076970143ebe73234e64480317844b0dcb36117116de48d8d6040516107fd9291906118e6565b60405180910390a3505050505050505050505050565b6000600160009054906101000a900473ffffffffffffffffffffffffffffffffffffffff16905090565b6000600360003373ffffffffffffffffffffffffffffffffffffffff1673ffffffffffffffffffffffffffffffffffffffff168152602001908152602001600020549050600081116108c4576040517f08c379a00000000000000000000000000000000000000000000000000000000081526004016108bb90611850565b60405180910390fd5b6000600360003373ffffffffffffffffffffffffffffffffffffffff1673ffffffffffffffffffffffffffffffffffffffff1681526020019081526020016000208190555060003373ffffffffffffffffffffffffffffffffffffffff166108fc839081150290604051600060405180830381858888f19350505050905080610982576040517f08c379a000000000000000000000000000000000000000000000000000000000815260040161097990611790565b60405180910390fd5b5050565b81816000600260008473ffffffffffffffffffffffffffffffffffffffff1673ffffffffffffffffffffffffffffffffffffffff1681526020019081526020016000206000838152602001908152602001600020604051806040016040529081600082015481526020016001820160009054906101000a900473ffffffffffffffffffffffffffffffffffffffff1673ffffffffffffffffffffffffffffffffffffffff1673ffffffffffffffffffffffffffffffffffffffff168152505090506000816000015111610a8e576040517f08c379a0000000000000000000000000000000000000000000000000000000008152600401610a85906117d0565b60405180910390fd5b610a96611354565b6000600260008773ffffffffffffffffffffffffffffffffffffffff1673ffffffffffffffffffffffffffffffffffffffff1681526020019081526020016000206000868152602001908152602001600020604051806040016040529081600082015481526020016001820160009054906101000a900473ffffffffffffffffffffffffffffffffffffffff1673ffffffffffffffffffffffffffffffffffffffff1673ffffffffffffffffffffffffffffffffffffffff168152505090508060000151341015610b9c576040517f08c379a0000000000000000000000000000000000000000000000000000000008152600401610b9390611750565b60405180910390fd5b3460036000836020015173ffffffffffffffffffffffffffffffffffffffff1673ffffffffffffffffffffffffffffffffffffffff1681526020019081526020016000206000828254610bef9190611920565b925050819055508573ffffffffffffffffffffffffffffffffffffffff166323b872dd3033886040518463ffffffff1660e01b8152600401610c3393929190611719565b600060405180830381600087803b158015610c4d57600080fd5b505af1158015610c61573d6000803e3d6000fd5b505050506040518060400160405280600081526020013373ffffffffffffffffffffffffffffffffffffffff16815250600260008873ffffffffffffffffffffffffffffffffffffffff1673ffffffffffffffffffffffffffffffffffffffff16815260200190815260200160002060008781526020019081526020016000206000820151816000015560208201518160010160006101000a81548173ffffffffffffffffffffffffffffffffffffffff021916908373ffffffffffffffffffffffffffffffffffffffff1602179055509050508573ffffffffffffffffffffffffffffffffffffffff16816020015173ffffffffffffffffffffffffffffffffffffffff163373ffffffffffffffffffffffffffffffffffffffff167fe9c622981335737fc4980ad7fa82f2007d350d10c84d88f14dc9d217be270277888560000151604051610db39291906118e6565b60405180910390a450610dc46113a4565b5050505050565b818130600083905060008173ffffffffffffffffffffffffffffffffffffffff16636352211e856040518263ffffffff1660e01b8152600401610e0e91906118cb565b60206040518083038186803b158015610e2657600080fd5b505afa158015610e3a573d6000803e3d6000fd5b505050506040513d601f19601f82011682018060405250810190610e5e9190611452565b90508073ffffffffffffffffffffffffffffffffffffffff168373ffffffffffffffffffffffffffffffffffffffff1614610ece576040517f08c379a0000000000000000000000000000000000000000000000000000000008152600401610ec590611870565b60405180910390fd5b86866000600260008473ffffffffffffffffffffffffffffffffffffffff1673ffffffffffffffffffffffffffffffffffffffff1681526020019081526020016000206000838152602001908152602001600020604051806040016040529081600082015481526020016001820160009054906101000a900473ffffffffffffffffffffffffffffffffffffffff1673ffffffffffffffffffffffffffffffffffffffff1673ffffffffffffffffffffffffffffffffffffffff168152505090506000816000015111610fd6576040517f08c379a0000000000000000000000000000000000000000000000000000000008152600401610fcd906117d0565b60405180910390fd5b60008a90508073ffffffffffffffffffffffffffffffffffffffff166323b872dd30338d6040518463ffffffff1660e01b815260040161101893929190611719565b600060405180830381600087803b15801561103257600080fd5b505af1158015611046573d6000803e3d6000fd5b505050506040518060400160405280600081526020013373ffffffffffffffffffffffffffffffffffffffff16815250600260008d73ffffffffffffffffffffffffffffffffffffffff1673ffffffffffffffffffffffffffffffffffffffff16815260200190815260200160002060008c81526020019081526020016000206000820151816000015560208201518160010160006101000a81548173ffffffffffffffffffffffffffffffffffffffff021916908373ffffffffffffffffffffffffffffffffffffffff1602179055509050508a73ffffffffffffffffffffffffffffffffffffffff163373ffffffffffffffffffffffffffffffffffffffff167f9ba1a3cb55ce8d63d072a886f94d2a744f50cddf82128e897d0661f5ec6231588c60405161117791906118cb565b60405180910390a35050505050505050505050565b611194611210565b600073ffffffffffffffffffffffffffffffffffffffff168173ffffffffffffffffffffffffffffffffffffffff161415611204576040517f08c379a00000000000000000000000000000000000000000000000000000000081526004016111fb90611770565b60405180910390fd5b61120d8161128e565b50565b6112186113ae565b73ffffffffffffffffffffffffffffffffffffffff16611236610813565b73ffffffffffffffffffffffffffffffffffffffff161461128c576040517f08c379a000000000000000000000000000000000000000000000000000000000815260040161128390611830565b60405180910390fd5b565b6000600160009054906101000a900473ffffffffffffffffffffffffffffffffffffffff16905081600160006101000a81548173ffffffffffffffffffffffffffffffffffffffff021916908373ffffffffffffffffffffffffffffffffffffffff1602179055508173ffffffffffffffffffffffffffffffffffffffff168173ffffffffffffffffffffffffffffffffffffffff167f8be0079c531659141344cd1fd0a4f28419497f9722a3daafe3b4186f6b6457e060405160405180910390a35050565b6002600054141561139a576040517f08c379a000000000000000000000000000000000000000000000000000000000815260040161139190611890565b60405180910390fd5b6002600081905550565b6001600081905550565b600033905090565b604051806040016040528060008152602001600073ffffffffffffffffffffffffffffffffffffffff1681525090565b6000813590506113f581611bcf565b92915050565b60008151905061140a81611bcf565b92915050565b60008135905061141f81611be6565b92915050565b60006020828403121561143b5761143a6119e1565b5b6000611449848285016113e6565b91505092915050565b600060208284031215611468576114676119e1565b5b6000611476848285016113fb565b91505092915050565b60008060408385031215611496576114956119e1565b5b60006114a4858286016113e6565b92505060206114b585828601611410565b9150509250929050565b6000806000606084860312156114d8576114d76119e1565b5b60006114e6868287016113e6565b93505060206114f786828701611410565b925050604061150886828701611410565b9150509250925092565b61151b81611976565b82525050565b61152a81611976565b82525050565b600061153d600e8361190f565b9150611548826119e6565b602082019050919050565b600061156060268361190f565b915061156b82611a0f565b604082019050919050565b6000611583600f8361190f565b915061158e82611a5e565b602082019050919050565b60006115a660198361190f565b91506115b182611a87565b602082019050919050565b60006115c9600b8361190f565b91506115d482611ab0565b602082019050919050565b60006115ec600f8361190f565b91506115f782611ad9565b602082019050919050565b600061160f601a8361190f565b915061161a82611b02565b602082019050919050565b600061163260208361190f565b915061163d82611b2b565b602082019050919050565b6000611655600c8361190f565b915061166082611b54565b602082019050919050565b6000611678600a8361190f565b915061168382611b7d565b602082019050919050565b600061169b601f8361190f565b91506116a682611ba6565b602082019050919050565b6040820160008201516116c760008501826116e0565b5060208201516116da6020850182611512565b50505050565b6116e9816119a8565b82525050565b6116f8816119a8565b82525050565b60006020820190506117136000830184611521565b92915050565b600060608201905061172e6000830186611521565b61173b6020830185611521565b61174860408301846116ef565b949350505050565b6000602082019050818103600083015261176981611530565b9050919050565b6000602082019050818103600083015261178981611553565b9050919050565b600060208201905081810360008301526117a981611576565b9050919050565b600060208201905081810360008301526117c981611599565b9050919050565b600060208201905081810360008301526117e9816115bc565b9050919050565b60006020820190508181036000830152611809816115df565b9050919050565b6000602082019050818103600083015261182981611602565b9050919050565b6000602082019050818103600083015261184981611625565b9050919050565b6000602082019050818103600083015261186981611648565b9050919050565b600060208201905081810360008301526118898161166b565b9050919050565b600060208201905081810360008301526118a98161168e565b9050919050565b60006040820190506118c560008301846116b1565b92915050565b60006020820190506118e060008301846116ef565b92915050565b60006040820190506118fb60008301856116ef565b61190860208301846116ef565b9392505050565b600082825260208201905092915050565b600061192b826119a8565b9150611936836119a8565b9250827fffffffffffffffffffffffffffffffffffffffffffffffffffffffffffffffff0382111561196b5761196a6119b2565b5b828201905092915050565b600061198182611988565b9050919050565b600073ffffffffffffffffffffffffffffffffffffffff82169050919050565b6000819050919050565b7f4e487b7100000000000000000000000000000000000000000000000000000000600052601160045260246000fd5b600080fd5b7f5072696365206e6f74206d657421000000000000000000000000000000000000600082015250565b7f4f776e61626c653a206e6577206f776e657220697320746865207a65726f206160008201527f6464726573730000000000000000000000000000000000000000000000000000602082015250565b7f5472616e73666572206661696c65640000000000000000000000000000000000600082015250565b7f5072696365206d7573742062652061626f7665207a65726f2100000000000000600082015250565b7f4e6f74206c697374656421000000000000000000000000000000000000000000600082015250565b7f416c7265616479206c6973746564210000000000000000000000000000000000600082015250565b7f4e46544d61726b65743a2062616c616e6365206973207a65726f000000000000600082015250565b7f4f776e61626c653a2063616c6c6572206973206e6f7420746865206f776e6572600082015250565b7f4e6f2070726f6365656473210000000000000000000000000000000000000000600082015250565b7f4e6f74206f776e65722100000000000000000000000000000000000000000000600082015250565b7f5265656e7472616e637947756172643a207265656e7472616e742063616c6c00600082015250565b611bd881611976565b8114611be357600080fd5b50565b611bef816119a8565b8114611bfa57600080fd5b5056fea264697066735822122003be637487b3efc62f7c55eed86f65ea2d188c63eace84fab1ee756d4cdb3e3364736f6c63430008070033",
  "linkReferences": {},
  "deployedLinkReferences": {}
}