{
  "_format": "hh-sol-artifact-1",
  "contractName": "BasicNFT",
  "sourceName": "contracts/BasicNFT.sol",
  "abi": [
    {
      "inputs": [],
      "stateMutability": "nonpayable",
      "type": "constructor"
    },
    {
      "anonymous": false,
      "inputs": [
        {
          "indexed": true,
          "internalType": "address",
          "name": "owner",
          "type": "address"
        },
        {
          "indexed": true,
          "internalType": "address",
          "name": "approved",
          "type": "address"
        },
        {
          "indexed": true,
          "internalType": "uint256",
          "name": "tokenId",
          "type": "uint256"
        }
      ],
      "name": "Approval",
      "type": "event"
    },
    {
      "anonymous": false,
      "inputs": [
        {
          "indexed": true,
          "internalType": "address",
          "name": "owner",
          "type": "address"
        },
        {
          "indexed": true,
          "internalType": "address",
          "name": "operator",
          "type": "address"
        },
        {
          "indexed": false,
          "internalType": "bool",
          "name": "approved",
          "type": "bool"
        }
      ],
      "name": "ApprovalForAll",
      "type": "event"
    },
    {
      "anonymous": false,
      "inputs": [
        {
          "indexed": true,
          "internalType": "uint256",
          "name": "tokenId",
          "type": "uint256"
        }
      ],
      "name": "NftMinted",
      "type": "event"
    },
    {
      "anonymous": false,
      "inputs": [
        {
          "indexed": true,
          "internalType": "address",
          "name": "from",
          "type": "address"
        },
        {
          "indexed": true,
          "internalType": "address",
          "name": "to",
          "type": "address"
        },
        {
          "indexed": true,
          "internalType": "uint256",
          "name": "tokenId",
          "type": "uint256"
        }
      ],
      "name": "Transfer",
      "type": "event"
    },
    {
      "inputs": [
        {
          "internalType": "address",
          "name": "to",
          "type": "address"
        },
        {
          "internalType": "uint256",
          "name": "tokenId",
          "type": "uint256"
        }
      ],
      "name": "approve",
      "outputs": [],
      "stateMutability": "nonpayable",
      "type": "function"
    },
    {
      "inputs": [
        {
          "internalType": "address",
          "name": "owner",
          "type": "address"
        }
      ],
      "name": "balanceOf",
      "outputs": [
        {
          "internalType": "uint256",
          "name": "",
          "type": "uint256"
        }
      ],
      "stateMutability": "view",
      "type": "function"
    },
    {
      "inputs": [
        {
          "internalType": "uint256",
          "name": "tokenId",
          "type": "uint256"
        }
      ],
      "name": "getApproved",
      "outputs": [
        {
          "internalType": "address",
          "name": "",
          "type": "address"
        }
      ],
      "stateMutability": "view",
      "type": "function"
    },
    {
      "inputs": [],
      "name": "getTokenCounter",
      "outputs": [
        {
          "internalType": "uint256",
          "name": "",
          "type": "uint256"
        }
      ],
      "stateMutability": "view",
      "type": "function"
    },
    {
      "inputs": [
        {
          "internalType": "address",
          "name": "owner",
          "type": "address"
        },
        {
          "internalType": "address",
          "name": "operator",
          "type": "address"
        }
      ],
      "name": "isApprovedForAll",
      "outputs": [
        {
          "internalType": "bool",
          "name": "",
          "type": "bool"
        }
      ],
      "stateMutability": "view",
      "type": "function"
    },
    {
      "inputs": [
        {
          "internalType": "string",
          "name": "tokenURI",
          "type": "string"
        }
      ],
      "name": "mintNft",
      "outputs": [],
      "stateMutability": "nonpayable",
      "type": "function"
    },
    {
      "inputs": [],
      "name": "name",
      "outputs": [
        {
          "internalType": "string",
          "name": "",
          "type": "string"
        }
      ],
      "stateMutability": "view",
      "type": "function"
    },
    {
      "inputs": [
        {
          "internalType": "uint256",
          "name": "tokenId",
          "type": "uint256"
        }
      ],
      "name": "ownerOf",
      "outputs": [
        {
          "internalType": "address",
          "name": "",
          "type": "address"
        }
      ],
      "stateMutability": "view",
      "type": "function"
    },
    {
      "inputs": [
        {
          "internalType": "address",
          "name": "from",
          "type": "address"
        },
        {
          "internalType": "address",
          "name": "to",
          "type": "address"
        },
        {
          "internalType": "uint256",
          "name": "tokenId",
          "type": "uint256"
        }
      ],
      "name": "safeTransferFrom",
      "outputs": [],
      "stateMutability": "nonpayable",
      "type": "function"
    },
    {
      "inputs": [
        {
          "internalType": "address",
          "name": "from",
          "type": "address"
        },
        {
          "internalType": "address",
          "name": "to",
          "type": "address"
        },
        {
          "internalType": "uint256",
          "name": "tokenId",
          "type": "uint256"
        },
        {
          "internalType": "bytes",
          "name": "data",
          "type": "bytes"
        }
      ],
      "name": "safeTransferFrom",
      "outputs": [],
      "stateMutability": "nonpayable",
      "type": "function"
    },
    {
      "inputs": [
        {
          "internalType": "address",
          "name": "operator",
          "type": "address"
        },
        {
          "internalType": "bool",
          "name": "approved",
          "type": "bool"
        }
      ],
      "name": "setApprovalForAll",
      "outputs": [],
      "stateMutability": "nonpayable",
      "type": "function"
    },
    {
      "inputs": [
        {
          "internalType": "bytes4",
          "name": "interfaceId",
          "type": "bytes4"
        }
      ],
      "name": "supportsInterface",
      "outputs": [
        {
          "internalType": "bool",
          "name": "",
          "type": "bool"
        }
      ],
      "stateMutability": "view",
      "type": "function"
    },
    {
      "inputs": [],
      "name": "symbol",
      "outputs": [
        {
          "internalType": "string",
          "name": "",
          "type": "string"
        }
      ],
      "stateMutability": "view",
      "type": "function"
    },
    {
      "inputs": [
        {
          "internalType": "uint256",
          "name": "tokenId",
          "type": "uint256"
        }
      ],
      "name": "tokenURI",
      "outputs": [
        {
          "internalType": "string",
          "name": "",
          "type": "string"
        }
      ],
      "stateMutability": "view",
      "type": "function"
    },
    {
      "inputs": [
        {
          "internalType": "address",
          "name": "from",
          "type": "address"
        },
        {
          "internalType": "address",
          "name": "to",
          "type": "address"
        },
        {
          "internalType": "uint256",
          "name": "tokenId",
          "type": "uint256"
        }
      ],
      "name": "transferFrom",
      "outputs": [],
      "stateMutability": "nonpayable",
      "type": "function"
    }
  ],
  "bytecode": "0x60806040523480156200001157600080fd5b506040518060400160405280600781526020017f4d79204e465473000000000000000000000000000000000000000000000000008152506040518060400160405280600481526020017f4d4e465400000000000000000000000000000000000000000000000000000000815250816000908051906020019062000096929190620000b8565b508060019080519060200190620000af929190620000b8565b505050620001cd565b828054620000c69062000168565b90600052602060002090601f016020900481019282620000ea576000855562000136565b82601f106200010557805160ff191683800117855562000136565b8280016001018555821562000136579182015b828111156200013557825182559160200191906001019062000118565b5b50905062000145919062000149565b5090565b5b80821115620001645760008160009055506001016200014a565b5090565b600060028204905060018216806200018157607f821691505b602082108114156200019857620001976200019e565b5b50919050565b7f4e487b7100000000000000000000000000000000000000000000000000000000600052602260045260246000fd5b61295880620001dd6000396000f3fe608060405234801561001057600080fd5b50600436106100f55760003560e01c80636e02007d11610097578063b88d4fde11610066578063b88d4fde14610284578063c87b56dd146102a0578063da86f4a9146102d0578063e985e9c5146102ec576100f5565b80636e02007d146101fc57806370a082311461021a57806395d89b411461024a578063a22cb46514610268576100f5565b8063095ea7b3116100d3578063095ea7b31461017857806323b872dd1461019457806342842e0e146101b05780636352211e146101cc576100f5565b806301ffc9a7146100fa57806306fdde031461012a578063081812fc14610148575b600080fd5b610114600480360381019061010f9190611d91565b61031c565b6040516101219190612164565b60405180910390f35b6101326103fe565b60405161013f919061217f565b60405180910390f35b610162600480360381019061015d9190611e38565b610490565b60405161016f91906120fd565b60405180910390f35b610192600480360381019061018d9190611d51565b6104d6565b005b6101ae60048036038101906101a99190611c3b565b6105ee565b005b6101ca60048036038101906101c59190611c3b565b61064e565b005b6101e660048036038101906101e19190611e38565b61066e565b6040516101f391906120fd565b60405180910390f35b6102046106f5565b6040516102119190612321565b60405180910390f35b610234600480360381019061022f9190611bce565b610706565b6040516102419190612321565b60405180910390f35b6102526107be565b60405161025f919061217f565b60405180910390f35b610282600480360381019061027d9190611d11565b610850565b005b61029e60048036038101906102999190611c8e565b610866565b005b6102ba60048036038101906102b59190611e38565b6108c8565b6040516102c7919061217f565b60405180910390f35b6102ea60048036038101906102e59190611deb565b6109db565b005b61030660048036038101906103019190611bfb565b610a7d565b6040516103139190612164565b60405180910390f35b60007f80ac58cd000000000000000000000000000000000000000000000000000000007bffffffffffffffffffffffffffffffffffffffffffffffffffffffff1916827bffffffffffffffffffffffffffffffffffffffffffffffffffffffff191614806103e757507f5b5e139f000000000000000000000000000000000000000000000000000000007bffffffffffffffffffffffffffffffffffffffffffffffffffffffff1916827bffffffffffffffffffffffffffffffffffffffffffffffffffffffff1916145b806103f757506103f682610b11565b5b9050919050565b60606000805461040d9061248b565b80601f01602080910402602001604051908101604052809291908181526020018280546104399061248b565b80156104865780601f1061045b57610100808354040283529160200191610486565b820191906000526020600020905b81548152906001019060200180831161046957829003601f168201915b5050505050905090565b600061049b82610b7b565b6004600083815260200190815260200160002060009054906101000a900473ffffffffffffffffffffffffffffffffffffffff169050919050565b60006104e18261066e565b90508073ffffffffffffffffffffffffffffffffffffffff168373ffffffffffffffffffffffffffffffffffffffff161415610552576040517f08c379a0000000000000000000000000000000000000000000000000000000008152600401610549906122e1565b60405180910390fd5b8073ffffffffffffffffffffffffffffffffffffffff16610571610bc6565b73ffffffffffffffffffffffffffffffffffffffff1614806105a0575061059f8161059a610bc6565b610a7d565b5b6105df576040517f08c379a00000000000000000000000000000000000000000000000000000000081526004016105d690612301565b60405180910390fd5b6105e98383610bce565b505050565b6105ff6105f9610bc6565b82610c87565b61063e576040517f08c379a0000000000000000000000000000000000000000000000000000000008152600401610635906121a1565b60405180910390fd5b610649838383610d1c565b505050565b61066983838360405180602001604052806000815250610866565b505050565b60008061067a83611016565b9050600073ffffffffffffffffffffffffffffffffffffffff168173ffffffffffffffffffffffffffffffffffffffff1614156106ec576040517f08c379a00000000000000000000000000000000000000000000000000000000081526004016106e3906122c1565b60405180910390fd5b80915050919050565b60006107016007611053565b905090565b60008073ffffffffffffffffffffffffffffffffffffffff168273ffffffffffffffffffffffffffffffffffffffff161415610777576040517f08c379a000000000000000000000000000000000000000000000000000000000815260040161076e90612261565b60405180910390fd5b600360008373ffffffffffffffffffffffffffffffffffffffff1673ffffffffffffffffffffffffffffffffffffffff168152602001908152602001600020549050919050565b6060600180546107cd9061248b565b80601f01602080910402602001604051908101604052809291908181526020018280546107f99061248b565b80156108465780601f1061081b57610100808354040283529160200191610846565b820191906000526020600020905b81548152906001019060200180831161082957829003601f168201915b5050505050905090565b61086261085b610bc6565b8383611061565b5050565b610877610871610bc6565b83610c87565b6108b6576040517f08c379a00000000000000000000000000000000000000000000000000000000081526004016108ad906121a1565b60405180910390fd5b6108c2848484846111ce565b50505050565b60606108d382610b7b565b60006006600084815260200190815260200160002080546108f39061248b565b80601f016020809104026020016040519081016040528092919081815260200182805461091f9061248b565b801561096c5780601f106109415761010080835404028352916020019161096c565b820191906000526020600020905b81548152906001019060200180831161094f57829003601f168201915b50505050509050600061097d61122a565b90506000815114156109935781925050506109d6565b6000825111156109c85780826040516020016109b09291906120d9565b604051602081830303815290604052925050506109d6565b6109d184611241565b925050505b919050565b6109e560076112a9565b60006109f16007611053565b90506109fd33826112bf565b610a4b8184848080601f016020809104026020016040519081016040528093929190818152602001838380828437600081840152601f19601f820116905080830192505050505050506112dd565b807f7f8949b6eca2b14d0feb1af0844a112998e467a4f88b8683301f3a6e409f32ae60405160405180910390a2505050565b6000600560008473ffffffffffffffffffffffffffffffffffffffff1673ffffffffffffffffffffffffffffffffffffffff16815260200190815260200160002060008373ffffffffffffffffffffffffffffffffffffffff1673ffffffffffffffffffffffffffffffffffffffff16815260200190815260200160002060009054906101000a900460ff16905092915050565b60007f01ffc9a7000000000000000000000000000000000000000000000000000000007bffffffffffffffffffffffffffffffffffffffffffffffffffffffff1916827bffffffffffffffffffffffffffffffffffffffffffffffffffffffff1916149050919050565b610b8481611351565b610bc3576040517f08c379a0000000000000000000000000000000000000000000000000000000008152600401610bba906122c1565b60405180910390fd5b50565b600033905090565b816004600083815260200190815260200160002060006101000a81548173ffffffffffffffffffffffffffffffffffffffff021916908373ffffffffffffffffffffffffffffffffffffffff160217905550808273ffffffffffffffffffffffffffffffffffffffff16610c418361066e565b73ffffffffffffffffffffffffffffffffffffffff167f8c5be1e5ebec7d5bd14f71427d1e84f3dd0314c0f7b2291e5b200ac8c7c3b92560405160405180910390a45050565b600080610c938361066e565b90508073ffffffffffffffffffffffffffffffffffffffff168473ffffffffffffffffffffffffffffffffffffffff161480610cd55750610cd48185610a7d565b5b80610d1357508373ffffffffffffffffffffffffffffffffffffffff16610cfb84610490565b73ffffffffffffffffffffffffffffffffffffffff16145b91505092915050565b8273ffffffffffffffffffffffffffffffffffffffff16610d3c8261066e565b73ffffffffffffffffffffffffffffffffffffffff1614610d92576040517f08c379a0000000000000000000000000000000000000000000000000000000008152600401610d89906121e1565b60405180910390fd5b600073ffffffffffffffffffffffffffffffffffffffff168273ffffffffffffffffffffffffffffffffffffffff161415610e02576040517f08c379a0000000000000000000000000000000000000000000000000000000008152600401610df990612221565b60405180910390fd5b610e0f8383836001611392565b8273ffffffffffffffffffffffffffffffffffffffff16610e2f8261066e565b73ffffffffffffffffffffffffffffffffffffffff1614610e85576040517f08c379a0000000000000000000000000000000000000000000000000000000008152600401610e7c906121e1565b60405180910390fd5b6004600082815260200190815260200160002060006101000a81549073ffffffffffffffffffffffffffffffffffffffff02191690556001600360008573ffffffffffffffffffffffffffffffffffffffff1673ffffffffffffffffffffffffffffffffffffffff168152602001908152602001600020600082825403925050819055506001600360008473ffffffffffffffffffffffffffffffffffffffff1673ffffffffffffffffffffffffffffffffffffffff16815260200190815260200160002060008282540192505081905550816002600083815260200190815260200160002060006101000a81548173ffffffffffffffffffffffffffffffffffffffff021916908373ffffffffffffffffffffffffffffffffffffffff160217905550808273ffffffffffffffffffffffffffffffffffffffff168473ffffffffffffffffffffffffffffffffffffffff167fddf252ad1be2c89b69c2b068fc378daa952ba7f163c4a11628f55a4df523b3ef60405160405180910390a46110118383836001611398565b505050565b60006002600083815260200190815260200160002060009054906101000a900473ffffffffffffffffffffffffffffffffffffffff169050919050565b600081600001549050919050565b8173ffffffffffffffffffffffffffffffffffffffff168373ffffffffffffffffffffffffffffffffffffffff1614156110d0576040517f08c379a00000000000000000000000000000000000000000000000000000000081526004016110c790612241565b60405180910390fd5b80600560008573ffffffffffffffffffffffffffffffffffffffff1673ffffffffffffffffffffffffffffffffffffffff16815260200190815260200160002060008473ffffffffffffffffffffffffffffffffffffffff1673ffffffffffffffffffffffffffffffffffffffff16815260200190815260200160002060006101000a81548160ff0219169083151502179055508173ffffffffffffffffffffffffffffffffffffffff168373ffffffffffffffffffffffffffffffffffffffff167f17307eab39ab6107e8899845ad3d59bd9653f200f220920489ca2b5937696c31836040516111c19190612164565b60405180910390a3505050565b6111d9848484610d1c565b6111e58484848461139e565b611224576040517f08c379a000000000000000000000000000000000000000000000000000000000815260040161121b906121c1565b60405180910390fd5b50505050565b606060405180602001604052806000815250905090565b606061124c82610b7b565b600061125661122a565b9050600081511161127657604051806020016040528060008152506112a1565b8061128084611535565b6040516020016112919291906120d9565b6040516020818303038152906040525b915050919050565b6001816000016000828254019250508190555050565b6112d982826040518060200160405280600081525061160d565b5050565b6112e682611351565b611325576040517f08c379a000000000000000000000000000000000000000000000000000000000815260040161131c90612281565b60405180910390fd5b8060066000848152602001908152602001600020908051906020019061134c9291906119fc565b505050565b60008073ffffffffffffffffffffffffffffffffffffffff1661137383611016565b73ffffffffffffffffffffffffffffffffffffffff1614159050919050565b50505050565b50505050565b60006113bf8473ffffffffffffffffffffffffffffffffffffffff16611668565b15611528578373ffffffffffffffffffffffffffffffffffffffff1663150b7a026113e8610bc6565b8786866040518563ffffffff1660e01b815260040161140a9493929190612118565b602060405180830381600087803b15801561142457600080fd5b505af192505050801561145557506040513d601f19601f820116820180604052508101906114529190611dbe565b60015b6114d8573d8060008114611485576040519150601f19603f3d011682016040523d82523d6000602084013e61148a565b606091505b506000815114156114d0576040517f08c379a00000000000000000000000000000000000000000000000000000000081526004016114c7906121c1565b60405180910390fd5b805181602001fd5b63150b7a0260e01b7bffffffffffffffffffffffffffffffffffffffffffffffffffffffff1916817bffffffffffffffffffffffffffffffffffffffffffffffffffffffff19161491505061152d565b600190505b949350505050565b6060600060016115448461168b565b01905060008167ffffffffffffffff8111156115635761156261254c565b5b6040519080825280601f01601f1916602001820160405280156115955781602001600182028036833780820191505090505b509050600082602001820190505b600115611602578080600190039150507f3031323334353637383961626364656600000000000000000000000000000000600a86061a8153600a85816115ec576115eb6124ee565b5b04945060008514156115fd57611602565b6115a3565b819350505050919050565b61161783836117de565b611624600084848461139e565b611663576040517f08c379a000000000000000000000000000000000000000000000000000000000815260040161165a906121c1565b60405180910390fd5b505050565b6000808273ffffffffffffffffffffffffffffffffffffffff163b119050919050565b600080600090507a184f03e93ff9f4daa797ed6e38ed64bf6a1f01000000000000000083106116e9577a184f03e93ff9f4daa797ed6e38ed64bf6a1f01000000000000000083816116df576116de6124ee565b5b0492506040810190505b6d04ee2d6d415b85acef81000000008310611726576d04ee2d6d415b85acef8100000000838161171c5761171b6124ee565b5b0492506020810190505b662386f26fc10000831061175557662386f26fc10000838161174b5761174a6124ee565b5b0492506010810190505b6305f5e100831061177e576305f5e1008381611774576117736124ee565b5b0492506008810190505b61271083106117a3576127108381611799576117986124ee565b5b0492506004810190505b606483106117c657606483816117bc576117bb6124ee565b5b0492506002810190505b600a83106117d5576001810190505b80915050919050565b600073ffffffffffffffffffffffffffffffffffffffff168273ffffffffffffffffffffffffffffffffffffffff16141561184e576040517f08c379a0000000000000000000000000000000000000000000000000000000008152600401611845906122a1565b60405180910390fd5b61185781611351565b15611897576040517f08c379a000000000000000000000000000000000000000000000000000000000815260040161188e90612201565b60405180910390fd5b6118a5600083836001611392565b6118ae81611351565b156118ee576040517f08c379a00000000000000000000000000000000000000000000000000000000081526004016118e590612201565b60405180910390fd5b6001600360008473ffffffffffffffffffffffffffffffffffffffff1673ffffffffffffffffffffffffffffffffffffffff16815260200190815260200160002060008282540192505081905550816002600083815260200190815260200160002060006101000a81548173ffffffffffffffffffffffffffffffffffffffff021916908373ffffffffffffffffffffffffffffffffffffffff160217905550808273ffffffffffffffffffffffffffffffffffffffff16600073ffffffffffffffffffffffffffffffffffffffff167fddf252ad1be2c89b69c2b068fc378daa952ba7f163c4a11628f55a4df523b3ef60405160405180910390a46119f8600083836001611398565b5050565b828054611a089061248b565b90600052602060002090601f016020900481019282611a2a5760008555611a71565b82601f10611a4357805160ff1916838001178555611a71565b82800160010185558215611a71579182015b82811115611a70578251825591602001919060010190611a55565b5b509050611a7e9190611a82565b5090565b5b80821115611a9b576000816000905550600101611a83565b5090565b6000611ab2611aad84612361565b61233c565b905082815260208101848484011115611ace57611acd61258a565b5b611ad9848285612449565b509392505050565b600081359050611af0816128c6565b92915050565b600081359050611b05816128dd565b92915050565b600081359050611b1a816128f4565b92915050565b600081519050611b2f816128f4565b92915050565b600082601f830112611b4a57611b49612580565b5b8135611b5a848260208601611a9f565b91505092915050565b60008083601f840112611b7957611b78612580565b5b8235905067ffffffffffffffff811115611b9657611b9561257b565b5b602083019150836001820283011115611bb257611bb1612585565b5b9250929050565b600081359050611bc88161290b565b92915050565b600060208284031215611be457611be3612594565b5b6000611bf284828501611ae1565b91505092915050565b60008060408385031215611c1257611c11612594565b5b6000611c2085828601611ae1565b9250506020611c3185828601611ae1565b9150509250929050565b600080600060608486031215611c5457611c53612594565b5b6000611c6286828701611ae1565b9350506020611c7386828701611ae1565b9250506040611c8486828701611bb9565b9150509250925092565b60008060008060808587031215611ca857611ca7612594565b5b6000611cb687828801611ae1565b9450506020611cc787828801611ae1565b9350506040611cd887828801611bb9565b925050606085013567ffffffffffffffff811115611cf957611cf861258f565b5b611d0587828801611b35565b91505092959194509250565b60008060408385031215611d2857611d27612594565b5b6000611d3685828601611ae1565b9250506020611d4785828601611af6565b9150509250929050565b60008060408385031215611d6857611d67612594565b5b6000611d7685828601611ae1565b9250506020611d8785828601611bb9565b9150509250929050565b600060208284031215611da757611da6612594565b5b6000611db584828501611b0b565b91505092915050565b600060208284031215611dd457611dd3612594565b5b6000611de284828501611b20565b91505092915050565b60008060208385031215611e0257611e01612594565b5b600083013567ffffffffffffffff811115611e2057611e1f61258f565b5b611e2c85828601611b63565b92509250509250929050565b600060208284031215611e4e57611e4d612594565b5b6000611e5c84828501611bb9565b91505092915050565b611e6e816123d5565b82525050565b611e7d816123e7565b82525050565b6000611e8e82612392565b611e9881856123a8565b9350611ea8818560208601612458565b611eb181612599565b840191505092915050565b6000611ec78261239d565b611ed181856123b9565b9350611ee1818560208601612458565b611eea81612599565b840191505092915050565b6000611f008261239d565b611f0a81856123ca565b9350611f1a818560208601612458565b80840191505092915050565b6000611f33602d836123b9565b9150611f3e826125aa565b604082019050919050565b6000611f566032836123b9565b9150611f61826125f9565b604082019050919050565b6000611f796025836123b9565b9150611f8482612648565b604082019050919050565b6000611f9c601c836123b9565b9150611fa782612697565b602082019050919050565b6000611fbf6024836123b9565b9150611fca826126c0565b604082019050919050565b6000611fe26019836123b9565b9150611fed8261270f565b602082019050919050565b60006120056029836123b9565b915061201082612738565b604082019050919050565b6000612028602e836123b9565b915061203382612787565b604082019050919050565b600061204b6020836123b9565b9150612056826127d6565b602082019050919050565b600061206e6018836123b9565b9150612079826127ff565b602082019050919050565b60006120916021836123b9565b915061209c82612828565b604082019050919050565b60006120b4603d836123b9565b91506120bf82612877565b604082019050919050565b6120d38161243f565b82525050565b60006120e58285611ef5565b91506120f18284611ef5565b91508190509392505050565b60006020820190506121126000830184611e65565b92915050565b600060808201905061212d6000830187611e65565b61213a6020830186611e65565b61214760408301856120ca565b81810360608301526121598184611e83565b905095945050505050565b60006020820190506121796000830184611e74565b92915050565b600060208201905081810360008301526121998184611ebc565b905092915050565b600060208201905081810360008301526121ba81611f26565b9050919050565b600060208201905081810360008301526121da81611f49565b9050919050565b600060208201905081810360008301526121fa81611f6c565b9050919050565b6000602082019050818103600083015261221a81611f8f565b9050919050565b6000602082019050818103600083015261223a81611fb2565b9050919050565b6000602082019050818103600083015261225a81611fd5565b9050919050565b6000602082019050818103600083015261227a81611ff8565b9050919050565b6000602082019050818103600083015261229a8161201b565b9050919050565b600060208201905081810360008301526122ba8161203e565b9050919050565b600060208201905081810360008301526122da81612061565b9050919050565b600060208201905081810360008301526122fa81612084565b9050919050565b6000602082019050818103600083015261231a816120a7565b9050919050565b600060208201905061233660008301846120ca565b92915050565b6000612346612357565b905061235282826124bd565b919050565b6000604051905090565b600067ffffffffffffffff82111561237c5761237b61254c565b5b61238582612599565b9050602081019050919050565b600081519050919050565b600081519050919050565b600082825260208201905092915050565b600082825260208201905092915050565b600081905092915050565b60006123e08261241f565b9050919050565b60008115159050919050565b60007fffffffff0000000000000000000000000000000000000000000000000000000082169050919050565b600073ffffffffffffffffffffffffffffffffffffffff82169050919050565b6000819050919050565b82818337600083830152505050565b60005b8381101561247657808201518184015260208101905061245b565b83811115612485576000848401525b50505050565b600060028204905060018216806124a357607f821691505b602082108114156124b7576124b661251d565b5b50919050565b6124c682612599565b810181811067ffffffffffffffff821117156124e5576124e461254c565b5b80604052505050565b7f4e487b7100000000000000000000000000000000000000000000000000000000600052601260045260246000fd5b7f4e487b7100000000000000000000000000000000000000000000000000000000600052602260045260246000fd5b7f4e487b7100000000000000000000000000000000000000000000000000000000600052604160045260246000fd5b600080fd5b600080fd5b600080fd5b600080fd5b600080fd5b600080fd5b6000601f19601f8301169050919050565b7f4552433732313a2063616c6c6572206973206e6f7420746f6b656e206f776e6560008201527f72206f7220617070726f76656400000000000000000000000000000000000000602082015250565b7f4552433732313a207472616e7366657220746f206e6f6e20455243373231526560008201527f63656976657220696d706c656d656e7465720000000000000000000000000000602082015250565b7f4552433732313a207472616e736665722066726f6d20696e636f72726563742060008201527f6f776e6572000000000000000000000000000000000000000000000000000000602082015250565b7f4552433732313a20746f6b656e20616c7265616479206d696e74656400000000600082015250565b7f4552433732313a207472616e7366657220746f20746865207a65726f2061646460008201527f7265737300000000000000000000000000000000000000000000000000000000602082015250565b7f4552433732313a20617070726f766520746f2063616c6c657200000000000000600082015250565b7f4552433732313a2061646472657373207a65726f206973206e6f74206120766160008201527f6c6964206f776e65720000000000000000000000000000000000000000000000602082015250565b7f45524337323155524953746f726167653a2055524920736574206f66206e6f6e60008201527f6578697374656e7420746f6b656e000000000000000000000000000000000000602082015250565b7f4552433732313a206d696e7420746f20746865207a65726f2061646472657373600082015250565b7f4552433732313a20696e76616c696420746f6b656e2049440000000000000000600082015250565b7f4552433732313a20617070726f76616c20746f2063757272656e74206f776e6560008201527f7200000000000000000000000000000000000000000000000000000000000000602082015250565b7f4552433732313a20617070726f76652063616c6c6572206973206e6f7420746f60008201527f6b656e206f776e6572206f7220617070726f76656420666f7220616c6c000000602082015250565b6128cf816123d5565b81146128da57600080fd5b50565b6128e6816123e7565b81146128f157600080fd5b50565b6128fd816123f3565b811461290857600080fd5b50565b6129148161243f565b811461291f57600080fd5b5056fea26469706673582212204700bbdfca707ca30dad57020ef47fce677e99843fa40c95b0bdeffc0460e69464736f6c63430008070033",
  "linkReferences": {},
  "deployedLinkReferences": {}
}